:100000000C9446000C9465000C9465000C946500FB
:100010000C9465000C9467000C948B000C946500A4
:100020000C9465000C9465000C94B9000C94650068
:100030000C9465000C9465000C9465000C946500AC
:100040000C940A1C0C9465000C9465000C946500DB
:100050000C9465000C9465000C9465000C9465008C
:100060000C9465000C9465000C9465000C9465007C
:100070000C9465000C9465000C9465000C9465006C
:100080000C9465000C9465000C94650011241FBE4F
:10009000CFEFD0E1DEBFCDBF12E0A0E0B1E0E4ECF5
:1000A000FAE300E00BBF02C007900D92A632B10741
:1000B000D9F719E0A6E2B2E001C01D92A835B10758
:1000C000E1F70E94F0000C94601D0C9400001F9258
:1000D0000F920FB60F9211248F939F9380912C0251
:1000E00090912D02019690932D0280932C02809185
:1000F0002C0290912D021816190634F481E090E03C
:1001000090932B0280932A029F918F910F900FBEA4
:100110000F901F9018951F920F920FB60F921124F7
:100120008F939F9380912E0290912F02019690932E
:100130002F0280932E029F918F910F900FBE0F90F0
:100140001F9018958FEF8ABB84BB8FE0809364006B
:1001500080E187BB83E085BD87B7806487BF8FEC74
:1001600082B980E389BF8AE08ABF8FB780688FBF7A
:1001700008951F920F920FB60F9211242F933F9361
:100180008F939F9320912A0230912B0221303105C9
:1001900049F09F918F913F912F910F900FBE0F903B
:1001A0001F9018958091280290912902892B61F067
:1001B0008091280290912902019761F080910001BD
:1001C0009091010184BDE5CFC49A30932902209318
:1001D0002802F4CFC4981092290210922802EECF80
:1001E0000F931F93DF93CF9300D0CDB7DEB70E945C
:1001F0006D1AF89487E083BF81E087BF84E682BFF1
:1002000078940E94A2000EE312E00E942E1D64E684
:1002100070E00E948A1CF801819391938F01F2E0B3
:100220000E341F0791F781E090E00E944F0A9093EF
:1002300057058093560580E090E00E949D069093BC
:1002400051028093500280E090E00E949D069093BE
:1002500031028093300282E592E061E070E00E941A
:100260006309909355028093540282E392E066E022
:1002700070E00E946309909359058093580580E0CF
:10028000BE016F5F7F4F0E948A0590934F0280935B
:100290004E0284EB93E060E070E045ED52E020E038
:1002A0000E94B50F89E393E060E070E045E553E01C
:1002B00021E00E94B50F82EC92E060E070E045ED35
:1002C00053E022E00E94B50F88EF91E060E070E01B
:1002D00045E554E023E00E94B50F81E891E060E03D
:1002E00070E045ED54E024E00E94B50F0E94ED1946
:1002F00080E090E00F900F90CF91DF911F910F91D0
:1003000008956F927F928F929F92AF92BF92CF92F9
:10031000DF92EF92FF920F931F93DF93CF9300D062
:10032000CDB7DEB76E010894C11CD11C8091580571
:100330009091590560E070E0A6010E94D812FC017E
:10034000A080B1808824992421E0E22EF12C95E749
:10035000692E712C30C0A114B10421F581149104CF
:1003600039F4709201016092000181E0882E912C95
:10037000809126029091270268EC70E00E948A1C0E
:10038000892B81F4F701E95EFE4F808190E0909324
:10039000010180930001C701019663E070E00E94B3
:1003A0008A1C7C0180914E0290914F0264E041E0F2
:1003B00096010E94411780914E0290914F0262E097
:1003C00042E820E030E086010E94D81781E0A816BC
:1003D000B10409F6809126029091270268EC70E042
:1003E0000E948A1C892BF1F6F701EC5EFE4FCDCFFF
:1003F0004F925F926F927F928F929F92AF92BF9235
:10040000CF92DF92EF92FF920F931F93DF93CF93E0
:10041000CDB7DEB72A970FB6F894DEBF0FBECDBFBB
:100420005E010894A11CB11C80915805909159055A
:1004300060E070E0A5010E94D812FC01C080D1806C
:1004400081E0C816D10409F48FC0CF016AE070E0E2
:100450000E948A1C2B01CF016AE070E00E948A1C76
:100460004C0142E0642E41E0742E680E791E30E1AA
:10047000E32E37E2F32E80914E0290914F0261E01D
:1004800042E820E030E085010E94D817E1E0CE1676
:10049000D10439F1C114D104D1F4A0E1B1E0EFE00D
:1004A000F1E08D9185BB808180936500C701019744
:1004B000F1F7319781E0A431B80799F780912602CE
:1004C00090912702019690932702809326028091B3
:1004D0004E0290914F0262E041E095010E94411767
:1004E000CACF1A86198618861F824D825E829C8228
:1004F0008B82F301808185BB80910C018093650024
:10050000C7010197F1F7ED81FE81EE5FFE4F80811B
:1005100085BB80910D0180936500C7010197F1F7BC
:10052000EF81F885EE5FFE4F808185BB80910E01E3
:1005300080936500C7010197F1F7E985FA85EE5FC1
:10054000FE4F808185BB80910F0180936500C701BC
:100550000197F1F7809126029091270201969093DE
:10056000270280932602B3CF8091540290915502C6
:1005700060E070E0A5010E94D812FC010190F081BA
:10058000E02D63CF8F929F92AF92BF92CF92DF9276
:10059000EF92FF920F931F93DF93CF9300D0CDB7CD
:1005A000DEB77E010894E11CF11C80915805909102
:1005B000590560E070E0A7010E94D812FC01C080DC
:1005C000D180A0E8AA2EB12CF5E58F2E912C14C075
:1005D00080914E0290914F0261E041E097010E94AC
:1005E000411780914E0290914F0264E042E820E072
:1005F00030E087010E94D81780912A0290912B0247
:10060000019731F781E0C816D104B9F0C114D104C3
:10061000F9F6809126029091270264E670E00E942C
:100620008A1C892BA9F68AEA88169104E1F06AEA05
:10063000862E912C8AEA8BBBCBCF8091260290919B
:1006400027026AE070E00E948A1C892B09F0C0CF63
:10065000ABBAB594A794A114B10409F0B9CF70E86E
:10066000A72EB12CB5CF55E5852E912C85E58BBBFA
:10067000AFCF6F927F928F929F92AF92BF92CF92A5
:10068000DF92FF920F931F93DF93CF9300D000D0A0
:1006900000D0CDB7DEB71E821D825E010894A11C7A
:1006A000B11C93E0892E912C8C0E9D1E85E0C82EE6
:1006B000D12CCC0EDD1EFF24F394B1E06B2E712CF7
:1006C000809150029091510260E070E0A5010E947B
:1006D0006D16FC010190F081E02D80912A0290912D
:1006E0002B02892B89F4FBBA20E030E080912A02AA
:1006F00090912B028901019781F3C90101968436FB
:10070000910559F39C01F2CFE017F10754F57E8271
:100710006D821C830B838091540290915502B40129
:100720000E9489128091580590915905B6010E9446
:1007300089128091580590915905B6010E9489123D
:100740008091580590915905B6010E9489128091B7
:1007500030029091310260E070E0A5010E946D16B8
:10076000AFCF1E821D82DECFCF92DF92EF92FF923B
:100770000F931F93DF93CF9300D000D0CDB7DEB798
:100780007E010894E11CF11C33E0C32ED12CCC0E69
:10079000DD1E809156059091570560E070E0A7013D
:1007A0000E94E81001C0890180912E0290912F02D1
:1007B000892BA1F420E030E080912E0290912F024D
:1007C0001816190684F32F5F3F4F28303105A1F723
:1007D00080912E0290912F02892B61F3F801EE0F88
:1007E000FF1FE25CFD4F808191819C838B83809110
:1007F0005605909157050E94C0108091500290912B
:100800005102B6010E94451680913002909131024A
:1008100060E070E0A7010E946D16BBCFFA018083F3
:100820009293129212921292129212921292129227
:100830001292129212921292129212921292129298
:100840001292129212921292129212921292129288
:1008500012926293729312921292129212921292C6
:100860001292129280E882933197CF0108950895F1
:100870000895089508950895089508950895089590
:1008800080915B05813009F008958091A6068F3F25
:10089000D9F38F5F8093A606089580915B05813020
:1008A00009F00895F89480915A058F3F19F08F5FF1
:1008B00080935A05789408958CEF90E008950895F8
:1008C000FF920F931F93CF93DF93EC018B01F42ED4
:1008D0003981E32FF0E0EE5DFE4F2081422F50E0A2
:1008E000FA01E65EFE4F7081DC01A40FB51F16967B
:1008F0009C911697E92FF0E0EE5DFE4F8081E82F86
:10090000F0E0E65EFE4F6081220F220F220F280FDB
:10091000862F8095892316968C93882321F4872F20
:10092000809538233983E22FF0E0EE0FFF1FE65C5D
:10093000F64F0190F081E02D128E118E138A128AEB
:10094000158B048B8F2D8095938D8923838F88231E
:1009500059F48091A006872B8093A006FA01EF55E9
:10096000F94F8081682B6083822FDF91CF911F9197
:100970000F91FF900895CF93DF93EC01A091A7060C
:10098000B091A80653969C938E9352975E968C9145
:100990005E97482F50E05F963C915F97FA01EF55C4
:1009A000F94F832F80959081892380838823A9F430
:1009B00090962C91922F90958091A00689238093F8
:1009C000A006FE01E40FF51F8681832B86838981B3
:1009D000822B8983DF91CF91089590962C91F1CF4E
:1009E000CF93DF93EC01A091A706B091A8065E9685
:1009F0008C915E97FE01E80FF11D5F968C915F97D9
:100A00008095968189238683882339F490969C91DA
:100A1000909790958981892389835B961C925B9737
:100A200053961C921E925297DF91CF910895FC012C
:100A30001182168217820895FC01D901009731F1C5
:100A40008081853021F081E08C9380E0089547FD1E
:100A500021C020E01C92F8944130F9F0413048F078
:100A6000423089F1433021F1789487E98C9380E01A
:100A700008959381892F80958623861709F442C0B3
:100A800088E98C939381892F7894089586E98C93D3
:100A900080E008954F7721E0DDCF9381892F809505
:100AA000862311F1213019F5892B8383982F1FC0DC
:100AB0009381692399F02130A1F4862F80958923B1
:100AC0008383982F0EC09381862F8923861791F0F8
:100AD00088E98C939381892F7894089588E98C9381
:100AE0009381892F7894089588E98C939381892F35
:100AF00078940895213079F7862F80958923838310
:100B0000982FE9CF213009F0BECF892F862B838320
:100B1000982FB9CF282FDB018091A6068823D9F41E
:100B2000F894E0913709F0913809309779F0818194
:100B30009281909338098093370985E080832383DD
:100B40001282118278941C92CF01089578948AE9D8
:100B50008C93CF0108958DE88C93E0E0F0E0F4CF22
:100B6000FC01DB01009761F08081853021F081E09C
:100B70008C9380E00895F894838178941C92089572
:100B800086E98C9380E00895EF92FF920F931F9374
:100B9000CF93DF937C01FB01A091A706B091A8063B
:100BA0005B968C915B9780625B968C935B975A9671
:100BB0001C930E93599757967C936E935697408744
:100BC0002187B583A483E70189819A8191838083FA
:100BD00013821282F782E68289819A81009719F046
:100BE000EC017B836A83E701FA83E9835E96EC91EB
:100BF0005E97F0E0EF55F94F5F968C915F97809587
:100C0000908189238083882341F490969C919095CC
:100C10008091A00689238093A006DF91CF911F9138
:100C20000F91FF90EF90089521E635E0F901CF0193
:100C30000496108292838183FC0185E0E137F807F6
:100C4000B1F7128211823093380920933709089541
:100C5000CF93DF93EC01EA81FB81A881B9813097C2
:100C600079F0B183A083109721F01396FC93EE9353
:100C70001297EC81FD81178A168ADF91CF91089532
:100C8000EE81FF81B283A183109799F313961C9292
:100C90001E921297EC81FD81178A168ADF91CF91FF
:100CA00008951F93CF93DF93EC01AC81BD815A96D9
:100CB0001C921E92599758966C9358975B968C91FC
:100CC0005B978F7D5B968C935B978823E1F4809193
:100CD000A00690969C919097892B8093A0065E9693
:100CE000EC915E97F0E0EF55F94F80815F969C9113
:100CF000892B808311E0CE010E942806812FDF918D
:100D0000CF911F91089510E0CE010E942806812FF7
:100D1000DF91CF911F910895FC01009721F420E00D
:100D200030E0C901089580818130C9F7F8942481A9
:100D30003581158214827894F4CF9C018091A606A7
:100D40008823D9F4F894E091A306F091A406309793
:100D500031F0848195819093A4068093A3067894C2
:100D6000309749F081E08083138212823583248397
:100D7000118216821782CF010895E0E0F0E0CF01E2
:100D80000895FC01DB010097C9F08081813011F0EA
:100D900081E00895F894818114968C93149786814C
:100DA00012968C931297878113968C931397848154
:100DB00095818D939C93789480E0089584E00895C4
:100DC0002F923F924F925F926F927F928F929F925B
:100DD000AF92BF92CF92DF92EF92FF920F931F9349
:100DE000CF93DF932C015A016B01380149011701A0
:100DF000009709F492C0423051056105710508F46D
:100E000080C0023011052105310508F480C0F89436
:100E100060915406709155066115710539F0FB011A
:100E2000828193819093550680935406789461153E
:100E3000710509F478C0E201A60195012150304006
:100E40004040504079F173018201060D171DF801F1
:100E500080E090E0A0E0B0E0F983E883EF01EE0DE0
:100E6000FF1D0196A11DB11D82179307A407B507A9
:100E700098F38EEF9FEFAFEFBFEFA80EB91ECA1E1B
:100E8000DB1EEA9CE001EB9CD00DFA9CD00D1124F6
:100E900082E090E0A0E0B0E0A80EB91ECA1EDB1E02
:100EA000C00FD11F19821882DB0111965C924E92FD
:100EB00013965C924E921297FB01A486B586C68665
:100EC000D7861896AD92BD92CD92DC921B97648224
:100ED000758286829782D1011C92CB01DF91CF91DE
:100EE0001F910F91FF90EF90DF90CF90BF90AF9048
:100EF0009F908F907F906F905F904F903F902F903A
:100F000008958FE6F701808360E070E0E6CF80E728
:100F1000D7018C9360E070E0E0CF86E7D7018C9337
:100F200060E070E0DACF8EE6D1018C93D6CFCF931C
:100F3000DF93FC01EB01009729F1F89424853585B6
:100F4000468557852115310541055105A9F0A28136
:100F5000B3818D919C91119793838283215030406E
:100F600040405040248735874687578778941882B9
:100F7000CD01DF91CF910895789481E78883A0E037
:100F8000B0E0F6CF84E78883A0E0B0E0F1CFCF9364
:100F9000DF93FC01EB01009769F16115710531F1F7
:100FA000F894248535854685578580859185A28569
:100FB000B385281739074A075B0728F0789482E73A
:100FC000DF91CF9108958281938199838883738380
:100FD00062832F5F3F4F4F4F5F4F24873587468790
:100FE0005787789480E0DF91CF91089583E7DF9170
:100FF000CF91089584E7E4CFCF93DF93EC01FB0119
:101000000097A9F16115710571F1F89488819981B2
:10101000918380838A819B81938382838C819D814C
:10102000AE81BF8184839583A683B78388859985A4
:10103000AA85BB8580879187A287B3872C853D854C
:101040004E855F8524873587468757877894821B2E
:10105000930BA40BB50B808B918BA28BB38B80E091
:10106000DF91CF91089585E7DF91CF91089584E7CF
:10107000F7CF88E795E0FC01DF015096B383A283A8
:1010800011821082148615861686178610861186A0
:1010900012861386148215821682178225E0A83BD9
:1010A000B20711F0FD01E8CF138A128A1D921C923B
:1010B000148E158E168E178E108E118E128E138E24
:1010C000148A158A168A178A9093550680935406B7
:1010D0000895CF93DF93DC01EB018091A60688236E
:1010E00059F4109779F08C91843081F081E08883F5
:1010F00080E0DF91CF91089582E0888380E0DF91E6
:10110000CF91089584E0888380E0F3CFF89412961D
:101110002D913C9113972F3F31F07894188280E005
:10112000DF91CF910895E091A706F091A806848DF4
:1011300090E02070822B932B13969C938E931297A2
:101140001596FC93EE9314977894188281E0D1CF92
:10115000CF93DF93982FEB018091A606882309F0A7
:1011600042C09C3008F044C0F894292F30E0D901E7
:10117000AA0FBB1FA65CB64F8D919C911197892B2E
:1011800019F581E090E011969C938E93E091A3066F
:10119000F091A406309709F1848195819093A4067B
:1011A0008093A306789484E08083922F88278F6FA2
:1011B0009383828315821482118216821782188289
:1011C000CF01DF91CF910895789488E28883E0E0A1
:1011D000F0E0CF01DF91CF9108951D921C92789499
:1011E00084E08883EDCF8DE88883E0E0F0E0E8CF0D
:1011F0008AE28883E0E0F0E0E3CFFC01DB0180914C
:10120000A606882309F5309731F18081843011F0EA
:1012100081E00895F8949281838115968C931597B7
:1012200014969C9314979F3F89F013961C921397E2
:10123000818112968C93129786818C938781119667
:101240008C93789480E0089586E0089581E0139669
:101250008C931397EDCF84E00895FC01009721F45F
:1012600020E030E0C901089580818230C9F7F89408
:10127000A481B5811C968D919C911D970097F9F0E2
:101280001896ED91FC911997219131911996FC9343
:10129000EE93189701971D969C938E931C97149626
:1012A0008D919C911597E817F90759F412968D9135
:1012B0009C91139719969C938E93189702C020E0E7
:1012C00030E07894CFCF9C018091A606882309F066
:1012D00052C0F894E091A306F091A406309731F043
:1012E000848195819093A4068093A3067894309787
:1012F000A9F1F894A0919E06B0919F06109781F1F4
:101300008D919C91119790939F0680939E0678945F
:1013100013963C932E931297CB01880F991F820F3F
:10132000931F15969C938E93149717963C932E9328
:10133000169719963C932E9318971B967C936E9351
:101340001A971D961C921E921C9782E0808313822E
:101350001282B583A483118216821782CF01089569
:101360008091A3069091A40695838483F093A406AC
:10137000E093A3067894E0E0F0E0CF010895FC014B
:101380000097A1F08081823011F081E00895F894F7
:101390000480F581E02D82819381978386839187F4
:1013A000808715861486789480E0089584E00895F7
:1013B000CF93DF93FC01DB010097A9F1808182309C
:1013C00021F081E0DF91CF910895F8948181189602
:1013D0008C931897868116968C931697878117960B
:1013E0008C931797C481D5812C853D8521153105B6
:1013F00091F411961C921E9213963C932E93129781
:101400008A859B8515969C938E931497789480E09B
:10141000DF91CF910895E885F985808191811196BA
:101420009C938E93E9CF84E0DF91CF91089584E679
:1014300096E090935706809356060E969093650615
:10144000809364060E9690937306809372060E96B0
:101450009093810680938006C89710928F06109211
:101460008E0690939F0680939E060895FC01009738
:1014700019F08081833021F020E030E0C901089527
:10148000F894228133812115310531F0215030400B
:10149000338322832F5F3F4F7894C90108959C01C5
:1014A0008091A6068823D9F4F894E091A306F091E0
:1014B000A406309731F0848195819093A40680939F
:1014C000A3067894309749F083E0808333832283A6
:1014D00015821482118216821782CF010895E0E0EE
:1014E000F0E0CF010895FC01DB010097C9F0808195
:1014F000833011F081E00895F894818114968C93E3
:101500001497868112968C931297878113968C93E9
:101510001397828193818D939C93789480E00895B2
:1015200084E00895E82F8C30B9F08C50833F90F020
:10153000EF3FA1F0F894F0E0EE0FFF1FE65CF64FEE
:101540000190F081E02D309789F08EE381A380E057
:10155000789408958AE208958DE30895F894E091CF
:10156000A706F091A80681A1789408958BE0F0CFAA
:10157000EF92FF920F931F93CF93DF93E82FEB012E
:101580008D50823F08F1188219821A821B821C82B8
:101590001D821E821F82F894EF3FF1F0F0E0EE0F03
:1015A000FF1FE65CF64F0190F081E02D3097D1F0FF
:1015B000828580FD20C0789482E8DF91CF911F91D1
:1015C0000F91FF90EF9008958AE2DF91CF911F91E4
:1015D0000F91FF90EF900895E091A706F091A80673
:1015E000E48DDCCF78948BE0DF91CF911F910F9148
:1015F000FF90EF900895E680F78000851185A48123
:10160000B58178948C91882311F520E030E040E09A
:1016100050E02F5F3F4F4F4F5F4FFD01E20FF31F31
:1016200080818823B1F3288339834A835B83E21A5C
:10163000F30A040B150BEC82FD820E831F8380E0FE
:10164000DF91CF911F910F91FF90EF90089520E0CF
:1016500030E040E050E0E7CFF8942091A9063091C7
:10166000AA064091AB065091AC067894B901CA0124
:101670000895F8946093A9067093AA068093AB0628
:101680009093AC0678940895E82F8D50823FC0F077
:10169000F894EF3FB9F0F0E0EE0FFF1FE65CF64F75
:1016A0000190F081E02D309741F0DB0182E2019062
:1016B0000D928150E1F778940895789489E2089525
:1016C0008AE20895E091A706F091A806E48DE3CFA1
:1016D0009F92AF92BF92CF92DF92EF92FF920F93C1
:1016E0001F93CF93DF93982EF894C0915006D0911A
:1016F0005106209709F46DC08E859F859093510601
:10170000809350067894798368839C8E1B8E1A8E02
:10171000198EDB82CA82EE82FF82088719875D8379
:101720004C83BB86AA863D872C8719A2E92DE695B6
:10173000E695E695EE8FF0E0E65EFE4F808188A3A9
:10174000E92DE770ED8FF0E0E65EFE4F80818F8F30
:101750001B8A1A8A1F8A1E8A1D8A1C8ACE010E9431
:101760003F04CE010E943704F894E92DF0E0EE0F1B
:10177000FF1FE65CF64FD183C083E0917605F091C0
:101780007705FF87EE87198A188A309711F0D18B79
:10179000C08BD0937705C09376058091A00698A161
:1017A000892B8093A006EE8DF0E0EF55F94F8081F4
:1017B0009F8D892B8083789480E0DF91CF911F915A
:1017C0000F91FF90EF90DF90CF90BF90AF909F90E0
:1017D0000895789486E4F1CFF89480915C05909117
:1017E0005D05A0915E05B0915F050196A11DB11D3B
:1017F00080935C0590935D05A0935E05B0935F05B3
:1018000078940E943E04E8CFF8948091A60688233D
:1018100009F03FC080915A058823D9F5E091A006D0
:10182000F0E0EE5DFE4F8081E82FF0E0EF55F94FDC
:10183000E081F0E0EE5DFE4F982F990F990F990F20
:101840008081980F9093600580917505981709F134
:10185000E92FF0E0EE0FFF1FE65CF64F80819181EB
:1018600090939D0680939C0680914806909149062E
:10187000A0914A06B0914B060196A11DB11D80931F
:10188000480690934906A0934A06B0934B060E94DF
:10189000701B789408958C30A0F4F894E82FF0E051
:1018A000EE0FFF1FE65CF64FA081B181109759F053
:1018B00059968D919C915A97892B41F4789480E5A3
:1018C00008958AE2089578948BE008955A961C92C0
:1018D0001E9259975B968C915B9783FF03C0789417
:1018E00080E008958091A00690969C919097892B16
:1018F0008093A0065E96EC915E97F0E0EF55F94F6D
:1019000080815F969C91892B808378940E94040C3F
:1019100080E008959C01009721F1F894A091A7061A
:10192000B091A8065E96EC915E97F0E0EF55F94F06
:101930005F968C915F97809590818923808388231F
:1019400049F490969C91909790958091A006892358
:101950008093A0065A963C932E93599778940E94B0
:10196000040C08958F929F92AF92BF92CF92DF9214
:10197000EF92FF920F931F93CF93DF93882E162F32
:10198000942E8823C9F01C3300F58BE3891590F061
:1019900093E0283E3907D8F083E5DF91CF911F917E
:1019A0000F91FF90EF90DF90CF90BF90AF909F90FE
:1019B0008F90089582E5F1CF662329F7442329F714
:1019C0002115310529F784E5E8CF81E5E6CFB90196
:1019D00080E090E024E630E040E050E00E946B1CA4
:1019E0006C507E4F8F4F9F4F28EE33E040E050E029
:1019F0000E949D1C59016A01612F70E080E090E017
:101A00002CE330E040E050E00E946B1C7B018C0135
:101A1000E90CF11C011D111D682D70E080E090E0C3
:101A200020E13EE040E050E00E946B1CE60EF71E15
:101A3000081F191FC801B70124E630E040E050E05C
:101A40000E946B1CA60EB71EC81ED91E7601002769
:101A50001127E7018FEF9FEFA0E0B0E0A822B922A5
:101A6000CA22DB22C5010E948A0CEF2851F080E0D7
:101A700090E80E948A0C80E090E80E948A0C2197EE
:101A8000B1F780E08ACFDF92EF92FF920F931F931E
:101A900080913909882341F488EC90E00E948A0CF7
:101AA000809139098823C1F360914C0670914D06ED
:101AB00080914E0690914F0624E630E040E050E0E1
:101AC0000E949D1CC901DA017C018D0134E6D32EF0
:101AD00010C0A80197010E949D1C8D2D821B87FDBF
:101AE00044C0809352060E943A0484E690E00E942B
:101AF0008A0CF89480915C0590915D05A0915E053B
:101B0000B0915F058093540990935509A0935609AD
:101B1000B093570960915C0570915D0580915E05F9
:101B200090915F0510925C0510925D0510925E0524
:101B300010925F057894E114F1040105110549F64E
:101B40001092520660914C0670914D0680914E069F
:101B500090914F0624E630E040E050E00E949D1C4A
:101B6000C901DA017C018D01BECF10925206BBCFB4
:101B700082E090E00E948A0CF89410925C0510922A
:101B80005D0510925E0510925F05789484E690E002
:101B90000E948A0CF89480915C0590915D05A0915B
:101BA0005E05B0915F0580934C0690934D06A0931F
:101BB0004E06B0934F0681E08093390978940895DA
:101BC000982F8C3009F43FC08C50833F80F1F894FB
:101BD0009F3FD9F1E091A706F091A806E48DE9179F
:101BE00009F43DC0E92F20E0F0E0EE0FFF1FE65CB6
:101BF000F64FA081B181109779F15E96EC915E97D6
:101C0000F0E0EF55F94F5F968C915F97809590814A
:101C100089238083882369F05B968C915B97886029
:101C20005B968C9378942130E1F080E008958AE20D
:101C3000089590969C91909790958091A006892305
:101C40008093A006E9CF8BE50895E091A706F09177
:101C5000A806E48D21E0C8CF78948AE5089521E0B4
:101C6000C3CF0E94040C80E008958C3098F4F8945F
:101C7000E82FF0E0EE0FFF1FE65CF64FA081B18188
:101C8000109751F05B968C915B9783FD08C0789418
:101C900085E608958AE20895789484E60895877F1A
:101CA0005B968C935B97882331F459968D919C9128
:101CB0005A97892B19F0789480E008958091A006B6
:101CC00090969C919097892B8093A0065E96EC91BC
:101CD0005E97F0E0EF55F94F80815F969C91892BDC
:101CE000808378940E94040C80E008950F931F93E2
:101CF000CF93DF93E82F8091A606882309F08BC04D
:101D0000EC3009F48EC08E2F8C50833F08F47DC0D8
:101D1000F894EF3F09F48BC00E2F10E0000F111F55
:101D2000F801E65CF64FC081D181209709F485C0A7
:101D30008E8D482F50E02F8D2095FA01EF55F94FE9
:101D4000808182238083882339F498A190958091A3
:101D5000A00689238093A006AA89BB89109781F0E9
:101D6000FD01E40FF51F868182238683882341F4D9
:101D700098A1909511968C911197892311968C9327
:101D80008E899F89009711F00E9428061A8E198E5D
:101D90001B8E80915A058F3F19F08F5F80935A05F3
:101DA0007894F894882319F0815080935A05CE01D5
:101DB0000E94380480915306815080935306065C3C
:101DC000164FF80111821082A889B9891097C1F1C4
:101DD0008E859F851F969C938E931E97EE85FF851B
:101DE000B18BA08B80915006909151069F878E8772
:101DF000D0935106C093500678940E94040C80E062
:101E0000DF91CF911F910F9108958AE2DF91CF91D9
:101E10001F910F9108958FE3DF91CF911F910F9143
:101E200008958DE3DF91CF911F910F910895E09177
:101E3000A706F091A806E48D6FCF78948CE3E6CFE7
:101E4000EE85FF85118A108AF0937705E093760579
:101E5000C9CF2F923F924F925F926F927F928F9253
:101E60009F92AF92BF92CF92DF92EF92FF920F9329
:101E70001F93DF93CF9300D000D00F92CDB7DEB782
:101E80002C011B015A834983722E6A2CBB82CC829F
:101E9000DD826401AA8CBB8C8CE0821738F1F89447
:101EA000822E9924880C991CF401E65CF64F8081FF
:101EB0009181892BE9F0789418E2812F0F900F908F
:101EC0000F900F900F90CF91DF911F910F91FF9086
:101ED000EF90DF90CF90BF90AF909F908F907F90CA
:101EE0006F905F904F903F902F9008951AE2E5CF4A
:101EF00081E090E0918380837894A0FC02C0A1FEF1
:101F000007C0C70160E070E0462D5B810E943E1D66
:101F1000C201B10149815A8195010E940E04BC01A0
:101F2000872DA7019801E62CFB800C811D810E9462
:101F3000680B182F882379F4F894809153068F5FEB
:101F400080935306789480915B05813009F0B5CF7A
:101F50000E94040CB2CFF894EAE3F9E08E0E9F1EC3
:101F6000F401118210827894A8CFAF92BF92CF92E1
:101F7000DF92EF92FF920F931F93CF93DF93FC01B9
:101F8000122F2D30C8F4F894C22FD0E0CC0FDD1FF3
:101F9000C65CD64F88819981892B81F0789418E2AC
:101FA000812FDF91CF911F910F91FF90EF90DF90E4
:101FB000CF90BF90AF9008951AE2F2CF81E090E009
:101FC000998388837894CF0120E030E00E940E044A
:101FD000BC01812F40E050E020E030E0EE24FF24FF
:101FE0008701CC24DD24AA24BB240E94680B182F6F
:101FF000882371F4F894809153068F5F8093530681
:10200000789480915B05813059F60E94040CC8CF0A
:10201000F894198218827894C3CFDF92EF92FF92DE
:102020000F931F93CF93DF93282F8C50833FC0F0E3
:102030006C30B0F4F894A62FB0E0AA0FBB1FFD01DE
:10204000E65CF64F80819181892B99F0789488E243
:10205000DF91CF911F910F91FF90EF90DF90089546
:102060008AE2DF91CF911F910F91FF90EF90DF9067
:10207000089581E090E0918380837894D62ED69461
:10208000D694D6940D2D10E0F801E65EFE4FF08058
:1020900097E0E92EE622EE2DF0E0E65EFE4F70813D
:1020A000F8942F3F09F452C0E22FF0E0EE0FFF1F2B
:1020B000E65CF64FC081D181209709F44DC01182B2
:1020C00010828E8D482F50E0FA01EF55F94F208194
:1020D0009F8D822F892301F1892F80958223808310
:1020E000882309F440C09091A0069F299093A006F0
:1020F000F801EF55F94F8081872B8083A65CB64F9E
:10210000CD93DC936C8FDE8EED8EF8A27F8F78946A
:102110000E94040C80E0A5CF2A893B892115310556
:1021200069F3F901E40FF51F892F809596818923C2
:1021300086838823F1F0F90191819F29F901918328
:10214000E00FF11F8681872B8683D8CFE091A70609
:10215000F091A806248DA8CFA65CB64F1D921C92C4
:10216000789489E27ECF88A180959091A0069823EB
:10217000BCCF88A18095F901918198239183DDCF0F
:10218000FC010097C1F08081833011F081E0089557
:10219000F8948181882389F4828193812FEF8F3F86
:1021A000920731F0019693838283789480E00895BA
:1021B000789482E3089584E00895CF0160E070E0B0
:1021C00041E00E94600478940E94040C80E008952D
:1021D0000F931F93CF93DF93EC018A018091A606A2
:1021E000882369F4209799F088818330A1F081E0F9
:1021F000FA018083DF91CF911F910F91089582E0C2
:10220000FA018083DF91CF911F910F91089584E0AF
:10221000FA018083EFCFF8948A819B81009759F06F
:1022200001979B838A837894FA011082DF91CF9182
:102230001F910F910895E091A706F091A806838D54
:102240008160838F728F618FCE010E94BB0478946E
:102250000E94040CF894E091A706F091A806838DE3
:1022600080FD06C0138A128A7894F8011082C2CFCA
:10227000CE010E94F00478948AE0F8018083BACFFE
:10228000FF920F931F93CF93DF93EC018A0180910C
:10229000A606882379F42097B9F088818330C1F0AD
:1022A00081E0FA018083CE01DF91CF911F910F91E0
:1022B000FF9008958CE8FA018083CE01DF91CF91E1
:1022C0001F910F91FF90089584E0FA018083EBCF76
:1022D000F894F980FF2011F0FF24F394662339F479
:1022E000FF2071F1789488E0F8018083DCCF6130C1
:1022F00029F0789487E0F8018083D5CFFF2049F05A
:10230000CE0160E070E041E00E9460048981882392
:10231000B9F718828091A3069091A4069D838C83BF
:10232000D093A406C093A3067894F1E0FF1629F099
:10233000F8011082C0E0D0E0B6CF0E94040CF8CFC4
:1023400018828091A3069091A4069D838C83D093DC
:10235000A406C093A3067894F8011082C0E0D0E0F0
:10236000A2CF0F931F93CF93DF93EC018B010097C4
:10237000C9F16115710581F18881823031F081E008
:10238000DF91CF911F910F910895F894898188234F
:1023900099F040FF46C0CE01B80144E00E946004BD
:1023A00089818823C1F778940E94040C80E0DF9132
:1023B000CF911F910F910895AC81BD811C962D91F5
:1023C0003C911D971A968D919C911B972817390760
:1023D00058F078948EE1D4CF83E0DF91CF911F91B4
:1023E0000F91089584E0CCCF41FF20C01896ED9165
:1023F000FC91199712968D919C911397E817F90704
:1024000079F132971996FC93EE9318971183008314
:102410002F5F3F4F1D963C932E931C97789480E03E
:10242000AFCFCE0144E00E946004BDCF1696ED917F
:10243000FC911797619371931796FC93EE931697FF
:1024400014968D919C911597E817F90709F7129644
:102450008D919C91139717969C938E931697D8CF36
:102460001496ED91FC9115971996FC93EE9318979D
:10247000C8CFFC01009739F16115710511F1808118
:10248000823011F081E00895F8948181882381F4ED
:10249000A481B5811C962D913C911D971A968D9122
:1024A0009C911B972817390780F078948EE1089546
:1024B000CF0144E00E94600478940E94040C80E004
:1024C000089583E0089584E008951896ED91FC91B5
:1024D000199712968D919C911397E817F90781F03F
:1024E00032971996FC93EE931897718360832F5F50
:1024F0003F4F1D963C932E931C97789480E008954F
:102500001496ED91FC9115971996FC93EE931897FC
:10251000E7CFFC01009739F16115710511F1808158
:10252000823011F081E00895F8948181882381F44C
:10253000A481B5811C962D913C911D971A968D9181
:102540009C911B972817390780F078948EE10895A5
:10255000CF0144E00E94600478940E94040C80E063
:10256000089583E0089584E008951696ED91FC9116
:102570001797619371931796FC93EE9316972F5FBD
:102580003F4F1D963C932E931C9714968D919C91D2
:102590001597E817F90719F0789480E008951296D6
:1025A0008D919C91139717969C938E931697F4CFC9
:1025B000EF92FF920F931F93CF93DF938C017A01D9
:1025C0008091A606882309F06BC00115110509F456
:1025D0006DC0F8018081823009F05CC0F894F80188
:1025E000A481B5811C968D919C911D97009709F14E
:1025F0001896ED91FC911997C191D1911996FC9380
:10260000EE93189701971D969C938E931C971496A2
:102610008D919C911597E817F90799F17894F70136
:102620001082CE01DF91CF911F910F91FF90EF901B
:102630000895E091A706F091A806838D8460838FAA
:10264000728F618FC8010E94BB0478940E94040CB1
:10265000F894E091A706F091A806C489D58920973F
:1026600059F1158A148A138E138A128A7894F70105
:102670001082CE01DF91CF911F910F91FF90EF90CB
:10268000089512968D919C91139719969C938E9311
:102690001897C4CF81E0FA018083C0E0D0E0C1CFB9
:1026A00082E0FA018083C0E0D0E0BBCF84E0FA0191
:1026B0008083C0E0D0E0B5CFC8010E94F0047894D8
:1026C0008AE0F7018083ADCFFF920F931F93CF93E2
:1026D000DF93EC018A018091A606882309F05EC091
:1026E000209739F18881823051F081E0FA018083AE
:1026F000CE01DF91CF911F910F91FF900895F89433
:10270000F980FF2089F4662341F4FF2009F44FC0CB
:10271000789488E0F8018083EBCF6130A1F0789461
:1027200087E0F8018083E4CFFF24F394662369F304
:10273000F4CF84E0FA018083CE01DF91CF911F9125
:102740000F91FF900895FF2049F0CE0160E070E006
:1027500044E00E94600489818823B9F7EC81FD81FF
:1027600080919E0690919F0691838083F0939F06AF
:10277000E0939E0618828091A3069091A4069D8303
:102780008C83D093A406C093A3067894F1E0FF163F
:1027900059F0F8011082C0E0D0E0AACF8CE8FA012D
:1027A0008083C0E0D0E0A4CF0E94040CF2CFEC8183
:1027B000FD8180919E0690919F0691838083F09386
:1027C0009F06E0939E0618828091A3069091A4062E
:1027D0009D838C83D093A406C093A3067894F801BC
:1027E0001082C0E0D0E084CFCF93DF93EC018091E2
:1027F000A6068823E9F42097F9F08881843021F037
:1028000081E0DF91CF910895F8943A814B81A091B6
:10281000A706B091A8065C968C915C97841771F01E
:10282000381709F456C0789488E7DF91CF9108955E
:1028300085E0DF91CF91089584E0E3CF5E96EC913F
:102840005E97F0E0EF55F94F5F968C915F9780951A
:10285000908189238083882349F490969C91909756
:1028600090958091A00689238093A0065C963C9366
:102870005C97E32FE695E695E6955E96EC935E977A
:10288000F0E0E65EFE4F208190962C939097E32F28
:10289000E7705D96EC935D97F0E0E65EFE4F908109
:1028A0005F969C935F978091A006822B8093A006F1
:1028B0005E96EC915E97F0E0EF55F94F8081982B92
:1028C0009083E32FF0E0EE0FFF1FE65CF64FB1833D
:1028D000A083E42FF0E0EE0FFF1FE65CF64F81E0EF
:1028E00090E0918380838981882351F48A819B8140
:1028F0008F6F9B838A831D821C82789480E081CFB6
:10290000CE0160E070E040E10E946004E82FF0E05A
:102910008A819B8180708E2B9F2B9B838A83EE0FF5
:10292000FF1FE65CF64F808191819D838C837894B4
:102930000E94040C80E065CF0F931F93CF93DF9329
:10294000EC018A018091A606882369F4209799F00A
:1029500088818430A1F081E0FA018083DF91CF91FA
:102960001F910F91089582E0FA018083DF91CF914A
:102970001F910F91089584E0FA018083EFCFF894BE
:102980002A813B812F3F09F47FC0432FAC81BD8159
:102990005C968C915C97831709F459C0E091A70667
:1029A000F091A806848D821708F055C05E968C9130
:1029B0005E97E82FF0E0EF55F94F50815F969C91BC
:1029C0005F97852F892309F478C0892F8095852307
:1029D0008083882349F490969C919097909580915C
:1029E000A00689238093A0065C964C935C97E42F05
:1029F000E695E695E6955E96EC935E97F0E0E65EEA
:102A0000FE4F208190962C939097E42FE7705D966F
:102A1000EC935D97F0E0E65EFE4F90815F969C93AD
:102A20005F978091A006822B8093A0065E96EC9122
:102A30005E97F0E0EF55F94F8081982B9083E42F5B
:102A4000F0E0EE0FFF1FE65CF64FB183A083E0914C
:102A5000A706F091A806838D8061838F728F618FA6
:102A6000CE010E94BB0478940E94040CF894E0917B
:102A7000A706F091A806838D84FD17C0138A128AD9
:102A80007894F80110826ACFE091A706F091A80629
:102A9000848D90E02070822B932B9B838A83FD830F
:102AA000EC837894FA01108259CFCE010E94F00491
:102AB00078948AE0F801808351CF5C963C935C97D0
:102AC000E32FE695E695E6955E96EC935E97F0E04B
:102AD000E65EFE4F808190968C939097E32FE7708F
:102AE0005D96EC935D97F0E0E65EFE4F80815F9629
:102AF0008C935F97A4CFFF920F931F93CF93DF9395
:102B0000EC018A018091A606882381F4209709F4BC
:102B100057C088818430A1F081E0FA018083CE0122
:102B2000DF91CF911F910F91FF9008958CE8FA01EA
:102B30008083CE01DF91CF911F910F91FF90089577
:102B4000F894F980FF2011F0FF24F394662339F400
:102B5000FF20D1F1789488E0F8018083E0CF6130E4
:102B600029F0789487E0F8018083D9CFFF2049F0DD
:102B7000CE0160E070E040E10E946004898188231A
:102B8000B9F7EB81F0E0EE0FFF1FE65CF64F118224
:102B9000108218828091A3069091A4069D838C8355
:102BA000D093A406C093A3067894F1E0FF1629F011
:102BB000F8011082C0E0D0E0B2CF0E94040CF8CF40
:102BC00084E0FA018083ABCFEB81F0E0EE0FFF1FD2
:102BD000E65CF64F1182108218828091A3069091D4
:102BE000A4069D838C83D093A406C093A3067894F7
:102BF000F8011082C0E0D0E092CF0F931F93CF93E3
:102C0000DF93EC018B010097A1F16115710559F17A
:102C10008881813031F081E0DF91CF911F910F9158
:102C20000895F8948981882399F040FF24C0CE014B
:102C3000B80142E00E94600489818823C1F778943A
:102C40000E94040C80E0DF91CF911F910F910895B5
:102C50008C819D81892BA1F0789484E1DF91CF91C3
:102C60001F910F91089583E0DF91CF911F910F91F4
:102C7000089584E0D1CFCE0142E00E946004DFCF0E
:102C80007D836C83789480E0C7CFFC010097F1F0DE
:102C900061157105C9F08081813011F081E00895DE
:102CA000F8948181882339F484819581892B81F07E
:102CB000789484E10895CF0142E00E946004789402
:102CC0000E94040C80E0089583E0089584E0089554
:102CD00075836483789480E00895EF92FF920F9358
:102CE0001F93CF93DF938C017A018091A6068823EE
:102CF00009F042C00115110509F444C0F8018081B2
:102D0000813099F4F894F801C481D581209799F025
:102D1000158214827894FA011082CE01DF91CF914E
:102D20001F910F91FF90EF90089581E0FA01808349
:102D3000C0E0D0E0F2CFE091A706F091A806838D25
:102D40008260838F728F618FC8010E94BB04789468
:102D50000E94040CF894E091A706F091A806C4899B
:102D6000D5892097A9F0158A148A138E138A128A9E
:102D70007894F7011082D1CF82E0FA018083C0E01D
:102D8000D0E0CBCF84E0FA018083C0E0D0E0C5CFB3
:102D9000C8010E94F00478948AE0F7018083BDCFD7
:102DA000FF920F931F93CF93DF93EC018A018091E1
:102DB000A606882379F42097B9F088818130C1F084
:102DC00081E0FA018083CE01DF91CF911F910F91B5
:102DD000FF9008958CE8FA018083CE01DF91CF91B6
:102DE0001F910F91FF90089584E0FA018083EBCF4B
:102DF000F894F980FF2011F0FF24F394662339F44E
:102E0000FF2071F1789488E0F8018083DCCF613095
:102E100029F0789487E0F8018083D5CFFF2049F02E
:102E2000CE0160E070E042E00E9460048981882366
:102E3000B9F718828091A3069091A4069D838C8394
:102E4000D093A406C093A3067894F1E0FF1629F06E
:102E5000F8011082C0E0D0E0B6CF0E94040CF8CF99
:102E600018828091A3069091A4069D838C83D093B1
:102E7000A406C093A3067894F8011082C0E0D0E0C5
:102E8000A2CFCF92DF92EF92FF920F931F93DF9327
:102E9000CF930F92CDB7DEB78C017901009709F47B
:102EA00078C0FC018081853071F081E0F901808378
:102EB00080E00F90CF91DF911F910F91FF90EF90E5
:102EC000DF90CF900895F894442309F048C06095AE
:102ED000F801838186238383F801C180D280C114E5
:102EE000D10409F463C0198210C0F6016085F801AD
:102EF0008381809586236817C1F0F60180819181D6
:102F00009C01690121153105F9F0F60181858130B7
:102F100071F1813050F3823099F1833071F7F6010D
:102F20006085F8018381682341F3C6010E94510640
:102F3000813019F7F1E0F983F601808191819C01DC
:102F400069012115310509F77894F981F13059F1BA
:102F5000F894F80183817894F7011082AACF413068
:102F6000E9F0789489E9F901808380E0A2CFF80143
:102F700063816095F6018085682309F4BECFD5CFC3
:102F8000F6016085F80183818623681709F0B5CFC3
:102F9000CCCF86E9F901808380E08BCFF801838173
:102FA000862B838399CF0E94040CD2CF1982CCCF79
:102FB0008F929F92BF92CF92DF92EF92FF920F93E8
:102FC0001F93DF93CF93CDB7DEB72B970FB6F8944F
:102FD000DEBF0FBECDBF7C01562FB42EF9016801B4
:102FE0008091A6068823E9F4E114F104F9F0D701F1
:102FF0008C91853001F181E0F801808380E02B968F
:103000000FB6F894DEBF0FBECDBFCF91DF911F91F9
:103010000F91FF90EF90DF90CF90BF909F908F9097
:10302000089582E0D8018C9380E0E9CF86E9F80129
:10303000808380E0E4CF47FD62C01B86F894A1E066
:10304000BA1609F461C0BA1650F5D70113964C911F
:10305000842F80958523851709F444C0C7014E014C
:103060000894811C911CB401452F20E08F010E941F
:10307000C40578940E94040CF894E091A706F0919E
:10308000A806838D85FD69C0BB85B13009F480C079
:10309000F7014381842F7894F6011082B0CFB2E01B
:1030A000BB1651F083E0B81609F443C0789487E961
:1030B000F601808380E0A3CFD70113964C91852F32
:1030C0008423851709F057C0BB85B13031F4852FB3
:1030D00080958423F7018383482F842F7894D60129
:1030E0001C928DCFBB85B13029F4842F852BF7013D
:1030F0008383482F842F7894D6011C9280CF8FE74A
:10310000B82291E09B879ACFD70113964C91642FF8
:103110006095652309F448C0BB85B13029F4862F3A
:10312000842BF7018383482F842F7894D6011C9237
:1031300066CFD70113964C91852F842309F441C0A3
:10314000BB85B13029F480958423F7018383482F10
:10315000842F7894D6011C9252CFC4010E94280675
:10316000E091A706F091A806138E78948AE0D60124
:103170008C9380E044CFC7014E010894811C911CC0
:10318000B401452F22E08F010E94C405789472CFCC
:1031900081E08B1518F1D70113964C911397808D10
:1031A000482B13964C9376CFC7014E010894811C8F
:1031B000911CB401452F21E08F010E94C405789431
:1031C00059CFC7014E010894811C911CB401452FB1
:1031D00023E08F010E94C40578944CCF93E09B15A7
:1031E00020F4D70113964C9155CF808D8095F7012F
:1031F0004381482343834ECFDF92EF92FF920F9398
:103200001F93CF93DF938C017A018091A6068823C8
:1032100099F401151105A1F0F80180818530A1F024
:1032200081E0FA018083C801DF91CF911F910F9156
:10323000FF90EF90DF9008958CE8FA018083F3CF40
:1032400086E9FA018083EFCFF894F8012181328179
:10325000DD242115310511F0DD24D394662339F4E2
:10326000DD2079F1789488E0F7018083DCCF61304C
:1032700061F0789487E0F7018083D5CFCE0160E0DC
:103280000E945106888199819C01E901211531052F
:10329000A9F7F8011082809137099091380992833B
:1032A000818310933809009337097894F1E0DF1691
:1032B00029F0F701108200E010E0B5CF0E94040C65
:1032C000F8CFF801108280913709909138099283E4
:1032D000818310933809009337097894F70110829D
:1032E00000E010E0A0CF80915B05813009F00895E7
:1032F000F89480915A05882359F0815080935A059B
:10330000882321F48091A606882321F078940895DB
:103310007894089578940E94040C08950E943B04C8
:10332000F8948091A9069091AA06A091AB06B0915D
:10333000AC060196A11DB11D8093A9069093AA0623
:10334000A093AB06B093AC06789480915B05813076
:1033500009F00895A0917605B09177055C968C915F
:103360005C978C30B1F32091A00641E050E01AC088
:1033700090968C919097282B5E96EC915E97F0E05A
:10338000EF55F94F80815F969C915F97892B8083E1
:103390001E960D90BC91A02D78945C968C915C97B4
:1033A0008C30C1F0F89459968D919C915A97009762
:1033B00079F301975A969C938E935997892B41F7ED
:1033C0005B968C915B9783FFD3CF5A965C934E9319
:1033D0005997DECF2093A006089580915B05811157
:1033E0000895E091A006F0E0EE5DFE4FA081EA2F87
:1033F000F0E0EF55F94FE081F0E0EE5DFE4FAA0FEF
:10340000AA0FAA0F8081A80FA0936005A09375054D
:10341000B0E0AA0FBB1FA65CB64F8D919C91909314
:103420009D0680939C069093A8068093A7060E9411
:103430003C1B089580915B05813009F00895F89454
:103440008091A606882339F081508093A6068823B0
:1034500011F07894089580915A058823D1F7E0916E
:10346000A006F0E0EE5DFE4F80818093A506E82F78
:10347000F0E0EF55F94FE081F0E0EE5DFE4F982F60
:10348000990F990F990F8081980F90936005809103
:1034900075059817F1F2E92FF0E0EE0FFF1FE65CDB
:1034A000F64F8081918190939D0680939C06809138
:1034B000480690914906A0914A06B0914B060196A4
:1034C000A11DB11D8093480690934906A0934A061A
:1034D000B0934B060E94D31BBCCF6F927F928F920A
:1034E0009F92AF92BF92CF92DF92EF92FF920F9393
:1034F0001F930E943C041092A9061092AA061092F3
:10350000AB061092AC061092A60610925A051092C5
:10351000530610925B0510924806109249061092CD
:103520004A0610924B0610925C0510925D051092AF
:103530005E0510925F051092540910925509109281
:1035400056091092570910924C0610924D0610928F
:103550004E0610924F06109239091092A006109252
:10356000A1061092A20610927505109260051092A5
:103570009D0610929C061092A8061092A706109223
:10358000770510927605EAE3F9E01192119229E0AD
:10359000E435F207D1F78FE997E0FC017497918346
:1035A00080838296E9E087339E07B9F71092240959
:1035B000109223098DE797E090935106809350066F
:1035C0002DE237E0F901CF010896108295838483BC
:1035D000FC0187E0E537F807B1F710821582148205
:1035E0003093A4062093A3060E9414060E94390873
:1035F0000E94170A00D0B3E06B2E712CEDB7FEB716
:10360000728261828CEE9BE060E070E04CE257E0F9
:103610002CE00FEF1FEFADEAEA2EA6E0FA2EF0E85D
:10362000AF2EB12CC12CD12C882499240E94290FB3
:10363000EDB7FEB77282618283E49DE060E070E0E6
:1036400047E456E02BE00EEF1FEFE8ECEE2EE5E04E
:10365000FE2E0E94290F0F900F900E943D041F9193
:103660000F91FF90EF90DF90CF90BF90AF909F9021
:103670008F907F906F9008950E94390400915B05B0
:10368000039500935B05E0919C06F0919D06C19126
:10369000CDBFD191DEBF0F910FBF0F910BBFFF9137
:1036A000EF91DF91CF91BF91AF919F918F917F91DA
:1036B0006F915F914F913F912F911F910F91FF90CB
:1036C000EF90DF90CF90BF90AF909F908F907F90C2
:1036D0006F905F904F903F902F901F900F900895A4
:1036E0000F921F922F923F924F925F926F927F9212
:1036F0008F929F92AF92BF92CF92DF92EF92FF9202
:103700000F931F932F933F934F935F936F937F93E9
:103710008F939F93AF93BF93CF93DF93EF93FF93D9
:103720000BB70F930FB70F93E091A706F091A80680
:10373000CDB7C193DEB7D1930E94390400916005E3
:1037400000937505E0919C06F0919D06E093A70615
:10375000F093A806C191CDBFD191DEBF0F910FBFED
:103760000F910BBFFF91EF91DF91CF91BF91AF917F
:103770009F918F917F916F915F914F913F912F9189
:103780001F910F91FF90EF90DF90CF90BF90AF907F
:103790009F908F907F906F905F904F903F902F9071
:1037A0001F900F9008950E943904009160050093C6
:1037B0007505E0919C06F0919D06E093A706F093B5
:1037C000A806C191CDBFD191DEBF0F910FBF0F9160
:1037D0000BBFFF91EF91DF91CF91BF91AF919F917F
:1037E0008F917F916F915F914F913F912F911F9199
:1037F0000F91FF90EF90DF90CF90BF90AF909F9090
:103800008F907F906F905F904F903F902F901F9080
:103810000F9008950F921F922F923F924F925F92B6
:103820006F927F928F929F92AF92BF92CF92DF92D0
:10383000EF92FF920F931F932F933F934F935F93BA
:103840006F937F938F939F93AF93BF93CF93DF93A8
:10385000EF93FF930BB70F930FB700680F9300918F
:10386000A60603950093A606013041F4CDB7DEB756
:10387000E091A706F091A806C193D19304E602BF98
:1038800078940E948E1900000E941A1A0F910FBF9F
:103890000F910BBFFF91EF91DF91CF91BF91AF914E
:1038A0009F918F917F916F915F914F913F912F9158
:1038B0001F910F91FF90EF90DF90CF90BF90AF904E
:1038C0009F908F907F906F905F904F903F902F9040
:1038D0001F900F900895629FD001739FF001829F07
:1038E000E00DF11D649FE00DF11D929FF00D839F8F
:1038F000F00D749FF00D659FF00D9927729FB00D2C
:10390000E11DF91F639FB00DE11DF91FBD01CF013E
:103910001124089597FB092E07260AD077FD04D0BD
:103920002ED006D000201AF4709561957F4F08952F
:10393000F6F7909581959F4F0895A1E21A2EAA1B44
:10394000BB1BFD010DC0AA1FBB1FEE1FFF1FA2174F
:10395000B307E407F50720F0A21BB30BE40BF50B4C
:10396000661F771F881F991F1A9469F760957095D5
:10397000809590959B01AC01BD01CF010895AA1BD4
:10398000BB1B51E107C0AA1FBB1FA617B70710F04A
:10399000A61BB70B881F991F5A95A9F7809590957C
:1039A000BC01CD010895AF92BF92CF92DF92EF920A
:1039B000FF920F931F93CF93DF93EC01A880B98000
:1039C000CA80DB80A114B104C104D10441F484E2B3
:1039D000A82E89EDB82E8BE5C82E87E0D82EC6011B
:1039E000B5012DE133EF41E050E00E94451D27EA8B
:1039F00031E440E050E00E946B1C7B018C01C60169
:103A0000B5012DE133EF41E050E00E94451DCA01B0
:103A1000B9012CEE34EF4FEF5FEF0E946B1C6E0D7F
:103A20007F1D801F911F97FF04C061507040804030
:103A30009048688379838A839B839B013F77C90180
:103A4000DF91CF911F910F91FF90EF90DF90CF907A
:103A5000BF90AF9008950E94D31C089582E292E037
:103A60000E94D31C0895A0E0B0E0809322029093BE
:103A70002302A0932402B09325020895DC0101C023
:103A80006D9341505040E0F7089597FB092E0526AD
:103A90000ED057FD04D051DF0AD0001C38F45095E9
:103AA0004095309521953F4F4F4F5F4F0895F6F762
:103AB00090958095709561957F4F8F4F9F4F08959A
:043AC000F894FFCFA8
:103AC40011003F065B4F666D7D277F6F010204087E
:103AD40071770638114D75754D11010204081020D7
:103AE4004080000001000200010003000100020008
:103AF40001000400010002000100030001000200B3
:103B040001000500010002000100030001000200A1
:103B14000100040001000200010003000100020092
:103B24000100060001000200010003000100020080
:103B34000100040001000200010003000100020072
:103B44000100050001000200010003000100020061
:103B54000100040001000200010003000100020052
:103B6400010007000100020001000300010002003F
:103B74000100040001000200010003000100020032
:103B84000100050001000200010003000100020021
:103B94000100040001000200010003000100020012
:103BA4000100060001000200010003000100020000
:103BB40001000400010002000100030001000200F2
:103BC40001000500010002000100030001000200E1
:103BD40001000400010002000100030001000200D2
:063BE400010001000000D9
:00000001FF
